{
  "_format": "hh-sol-artifact-1",
  "contractName": "TokenMaster",
  "sourceName": "contracts/TokenMaster.sol",
  "abi": [
    {
      "inputs": [
        {
          "internalType": "string",
          "name": "_name",
          "type": "string"
        },
        {
          "internalType": "string",
          "name": "_symbol",
          "type": "string"
        }
      ],
      "stateMutability": "nonpayable",
      "type": "constructor"
    },
    {
      "anonymous": false,
      "inputs": [
        {
          "indexed": true,
          "internalType": "address",
          "name": "owner",
          "type": "address"
        },
        {
          "indexed": true,
          "internalType": "address",
          "name": "approved",
          "type": "address"
        },
        {
          "indexed": true,
          "internalType": "uint256",
          "name": "tokenId",
          "type": "uint256"
        }
      ],
      "name": "Approval",
      "type": "event"
    },
    {
      "anonymous": false,
      "inputs": [
        {
          "indexed": true,
          "internalType": "address",
          "name": "owner",
          "type": "address"
        },
        {
          "indexed": true,
          "internalType": "address",
          "name": "operator",
          "type": "address"
        },
        {
          "indexed": false,
          "internalType": "bool",
          "name": "approved",
          "type": "bool"
        }
      ],
      "name": "ApprovalForAll",
      "type": "event"
    },
    {
      "anonymous": false,
      "inputs": [
        {
          "indexed": true,
          "internalType": "address",
          "name": "from",
          "type": "address"
        },
        {
          "indexed": true,
          "internalType": "address",
          "name": "to",
          "type": "address"
        },
        {
          "indexed": true,
          "internalType": "uint256",
          "name": "tokenId",
          "type": "uint256"
        }
      ],
      "name": "Transfer",
      "type": "event"
    },
    {
      "inputs": [
        {
          "internalType": "address",
          "name": "to",
          "type": "address"
        },
        {
          "internalType": "uint256",
          "name": "tokenId",
          "type": "uint256"
        }
      ],
      "name": "approve",
      "outputs": [],
      "stateMutability": "nonpayable",
      "type": "function"
    },
    {
      "inputs": [
        {
          "internalType": "address",
          "name": "owner",
          "type": "address"
        }
      ],
      "name": "balanceOf",
      "outputs": [
        {
          "internalType": "uint256",
          "name": "",
          "type": "uint256"
        }
      ],
      "stateMutability": "view",
      "type": "function"
    },
    {
      "inputs": [
        {
          "internalType": "uint256",
          "name": "tokenId",
          "type": "uint256"
        }
      ],
      "name": "getApproved",
      "outputs": [
        {
          "internalType": "address",
          "name": "",
          "type": "address"
        }
      ],
      "stateMutability": "view",
      "type": "function"
    },
    {
      "inputs": [
        {
          "internalType": "uint256",
          "name": "_id",
          "type": "uint256"
        }
      ],
      "name": "getOccasion",
      "outputs": [
        {
          "components": [
            {
              "internalType": "uint256",
              "name": "id",
              "type": "uint256"
            },
            {
              "internalType": "string",
              "name": "name",
              "type": "string"
            },
            {
              "internalType": "uint256",
              "name": "cost",
              "type": "uint256"
            },
            {
              "internalType": "uint256",
              "name": "tickets",
              "type": "uint256"
            },
            {
              "internalType": "uint256",
              "name": "maxTickets",
              "type": "uint256"
            },
            {
              "internalType": "string",
              "name": "date",
              "type": "string"
            },
            {
              "internalType": "string",
              "name": "time",
              "type": "string"
            },
            {
              "internalType": "string",
              "name": "location",
              "type": "string"
            }
          ],
          "internalType": "struct TokenMaster.Occasion",
          "name": "occasion",
          "type": "tuple"
        }
      ],
      "stateMutability": "view",
      "type": "function"
    },
    {
      "inputs": [
        {
          "internalType": "uint256",
          "name": "_id",
          "type": "uint256"
        }
      ],
      "name": "getSeatsTaken",
      "outputs": [
        {
          "internalType": "uint256[]",
          "name": "",
          "type": "uint256[]"
        }
      ],
      "stateMutability": "view",
      "type": "function"
    },
    {
      "inputs": [
        {
          "internalType": "uint256",
          "name": "",
          "type": "uint256"
        },
        {
          "internalType": "address",
          "name": "",
          "type": "address"
        }
      ],
      "name": "hasBought",
      "outputs": [
        {
          "internalType": "bool",
          "name": "",
          "type": "bool"
        }
      ],
      "stateMutability": "view",
      "type": "function"
    },
    {
      "inputs": [
        {
          "internalType": "address",
          "name": "owner",
          "type": "address"
        },
        {
          "internalType": "address",
          "name": "operator",
          "type": "address"
        }
      ],
      "name": "isApprovedForAll",
      "outputs": [
        {
          "internalType": "bool",
          "name": "",
          "type": "bool"
        }
      ],
      "stateMutability": "view",
      "type": "function"
    },
    {
      "inputs": [
        {
          "internalType": "string",
          "name": "_name",
          "type": "string"
        },
        {
          "internalType": "uint256",
          "name": "_cost",
          "type": "uint256"
        },
        {
          "internalType": "uint256",
          "name": "_maxTickets",
          "type": "uint256"
        },
        {
          "internalType": "string",
          "name": "_date",
          "type": "string"
        },
        {
          "internalType": "string",
          "name": "_time",
          "type": "string"
        },
        {
          "internalType": "string",
          "name": "_location",
          "type": "string"
        }
      ],
      "name": "list",
      "outputs": [],
      "stateMutability": "nonpayable",
      "type": "function"
    },
    {
      "inputs": [
        {
          "internalType": "uint256",
          "name": "_id",
          "type": "uint256"
        },
        {
          "internalType": "uint256",
          "name": "_seat",
          "type": "uint256"
        }
      ],
      "name": "mint",
      "outputs": [],
      "stateMutability": "payable",
      "type": "function"
    },
    {
      "inputs": [],
      "name": "name",
      "outputs": [
        {
          "internalType": "string",
          "name": "",
          "type": "string"
        }
      ],
      "stateMutability": "view",
      "type": "function"
    },
    {
      "inputs": [
        {
          "internalType": "uint256",
          "name": "",
          "type": "uint256"
        }
      ],
      "name": "occasions",
      "outputs": [
        {
          "internalType": "uint256",
          "name": "id",
          "type": "uint256"
        },
        {
          "internalType": "string",
          "name": "name",
          "type": "string"
        },
        {
          "internalType": "uint256",
          "name": "cost",
          "type": "uint256"
        },
        {
          "internalType": "uint256",
          "name": "tickets",
          "type": "uint256"
        },
        {
          "internalType": "uint256",
          "name": "maxTickets",
          "type": "uint256"
        },
        {
          "internalType": "string",
          "name": "date",
          "type": "string"
        },
        {
          "internalType": "string",
          "name": "time",
          "type": "string"
        },
        {
          "internalType": "string",
          "name": "location",
          "type": "string"
        }
      ],
      "stateMutability": "view",
      "type": "function"
    },
    {
      "inputs": [],
      "name": "owner",
      "outputs": [
        {
          "internalType": "address",
          "name": "",
          "type": "address"
        }
      ],
      "stateMutability": "view",
      "type": "function"
    },
    {
      "inputs": [
        {
          "internalType": "uint256",
          "name": "tokenId",
          "type": "uint256"
        }
      ],
      "name": "ownerOf",
      "outputs": [
        {
          "internalType": "address",
          "name": "",
          "type": "address"
        }
      ],
      "stateMutability": "view",
      "type": "function"
    },
    {
      "inputs": [
        {
          "internalType": "address",
          "name": "from",
          "type": "address"
        },
        {
          "internalType": "address",
          "name": "to",
          "type": "address"
        },
        {
          "internalType": "uint256",
          "name": "tokenId",
          "type": "uint256"
        }
      ],
      "name": "safeTransferFrom",
      "outputs": [],
      "stateMutability": "nonpayable",
      "type": "function"
    },
    {
      "inputs": [
        {
          "internalType": "address",
          "name": "from",
          "type": "address"
        },
        {
          "internalType": "address",
          "name": "to",
          "type": "address"
        },
        {
          "internalType": "uint256",
          "name": "tokenId",
          "type": "uint256"
        },
        {
          "internalType": "bytes",
          "name": "data",
          "type": "bytes"
        }
      ],
      "name": "safeTransferFrom",
      "outputs": [],
      "stateMutability": "nonpayable",
      "type": "function"
    },
    {
      "inputs": [
        {
          "internalType": "uint256",
          "name": "",
          "type": "uint256"
        },
        {
          "internalType": "uint256",
          "name": "",
          "type": "uint256"
        }
      ],
      "name": "seatTaken",
      "outputs": [
        {
          "internalType": "address",
          "name": "",
          "type": "address"
        }
      ],
      "stateMutability": "view",
      "type": "function"
    },
    {
      "inputs": [
        {
          "internalType": "address",
          "name": "operator",
          "type": "address"
        },
        {
          "internalType": "bool",
          "name": "approved",
          "type": "bool"
        }
      ],
      "name": "setApprovalForAll",
      "outputs": [],
      "stateMutability": "nonpayable",
      "type": "function"
    },
    {
      "inputs": [
        {
          "internalType": "bytes4",
          "name": "interfaceId",
          "type": "bytes4"
        }
      ],
      "name": "supportsInterface",
      "outputs": [
        {
          "internalType": "bool",
          "name": "",
          "type": "bool"
        }
      ],
      "stateMutability": "view",
      "type": "function"
    },
    {
      "inputs": [],
      "name": "symbol",
      "outputs": [
        {
          "internalType": "string",
          "name": "",
          "type": "string"
        }
      ],
      "stateMutability": "view",
      "type": "function"
    },
    {
      "inputs": [
        {
          "internalType": "uint256",
          "name": "tokenId",
          "type": "uint256"
        }
      ],
      "name": "tokenURI",
      "outputs": [
        {
          "internalType": "string",
          "name": "",
          "type": "string"
        }
      ],
      "stateMutability": "view",
      "type": "function"
    },
    {
      "inputs": [],
      "name": "totalOccasion",
      "outputs": [
        {
          "internalType": "uint256",
          "name": "",
          "type": "uint256"
        }
      ],
      "stateMutability": "view",
      "type": "function"
    },
    {
      "inputs": [],
      "name": "totalSupply",
      "outputs": [
        {
          "internalType": "uint256",
          "name": "",
          "type": "uint256"
        }
      ],
      "stateMutability": "view",
      "type": "function"
    },
    {
      "inputs": [
        {
          "internalType": "address",
          "name": "from",
          "type": "address"
        },
        {
          "internalType": "address",
          "name": "to",
          "type": "address"
        },
        {
          "internalType": "uint256",
          "name": "tokenId",
          "type": "uint256"
        }
      ],
      "name": "transferFrom",
      "outputs": [],
      "stateMutability": "nonpayable",
      "type": "function"
    },
    {
      "inputs": [],
      "name": "withdraw",
      "outputs": [],
      "stateMutability": "nonpayable",
      "type": "function"
    }
  ],
  "bytecode": "0x60806040523480156200001157600080fd5b50604051620045cc380380620045cc83398181016040528101906200003791906200023b565b818181600090816200004a91906200050b565b5080600190816200005c91906200050b565b50505033600660006101000a81548173ffffffffffffffffffffffffffffffffffffffff021916908373ffffffffffffffffffffffffffffffffffffffff1602179055505050620005f2565b6000604051905090565b600080fd5b600080fd5b600080fd5b600080fd5b6000601f19601f8301169050919050565b7f4e487b7100000000000000000000000000000000000000000000000000000000600052604160045260246000fd5b6200011182620000c6565b810181811067ffffffffffffffff82111715620001335762000132620000d7565b5b80604052505050565b600062000148620000a8565b905062000156828262000106565b919050565b600067ffffffffffffffff821115620001795762000178620000d7565b5b6200018482620000c6565b9050602081019050919050565b60005b83811015620001b157808201518184015260208101905062000194565b60008484015250505050565b6000620001d4620001ce846200015b565b6200013c565b905082815260208101848484011115620001f357620001f2620000c1565b5b6200020084828562000191565b509392505050565b600082601f83011262000220576200021f620000bc565b5b815162000232848260208601620001bd565b91505092915050565b60008060408385031215620002555762000254620000b2565b5b600083015167ffffffffffffffff811115620002765762000275620000b7565b5b620002848582860162000208565b925050602083015167ffffffffffffffff811115620002a857620002a7620000b7565b5b620002b68582860162000208565b9150509250929050565b600081519050919050565b7f4e487b7100000000000000000000000000000000000000000000000000000000600052602260045260246000fd5b600060028204905060018216806200031357607f821691505b602082108103620003295762000328620002cb565b5b50919050565b60008190508160005260206000209050919050565b60006020601f8301049050919050565b600082821b905092915050565b600060088302620003937fffffffffffffffffffffffffffffffffffffffffffffffffffffffffffffffff8262000354565b6200039f868362000354565b95508019841693508086168417925050509392505050565b6000819050919050565b6000819050919050565b6000620003ec620003e6620003e084620003b7565b620003c1565b620003b7565b9050919050565b6000819050919050565b6200040883620003cb565b620004206200041782620003f3565b84845462000361565b825550505050565b600090565b6200043762000428565b62000444818484620003fd565b505050565b5b818110156200046c57620004606000826200042d565b6001810190506200044a565b5050565b601f821115620004bb5762000485816200032f565b620004908462000344565b81016020851015620004a0578190505b620004b8620004af8562000344565b83018262000449565b50505b505050565b600082821c905092915050565b6000620004e060001984600802620004c0565b1980831691505092915050565b6000620004fb8383620004cd565b9150826002028217905092915050565b6200051682620002c0565b67ffffffffffffffff811115620005325762000531620000d7565b5b6200053e8254620002fa565b6200054b82828562000470565b600060209050601f8311600181146200058357600084156200056e578287015190505b6200057a8582620004ed565b865550620005ea565b601f19841662000593866200032f565b60005b82811015620005bd5784890151825560018201915060208501945060208101905062000596565b86831015620005dd5784890151620005d9601f891682620004cd565b8355505b6001600288020188555050505b505050505050565b613fca80620006026000396000f3fe60806040526004361061014b5760003560e01c806370a08231116100b65780639cb04aef1161006f5780639cb04aef146104b0578063a22cb465146104ed578063af296da114610516578063b88d4fde14610553578063c87b56dd1461057c578063e985e9c5146105b95761014b565b806370a082311461038c5780637238e518146103c957806374bc8656146103f45780638da5cb5b1461043157806395d89b411461045c5780639a382f0f146104875761014b565b80631b2ef1ca116101085780631b2ef1ca1461028657806323b872dd146102a25780633ccfd60b146102cb57806342842e0e146102e257806361a5672d1461030b5780636352211e1461034f5761014b565b806301ffc9a71461015057806306fdde031461018d578063081812fc146101b8578063095ea7b3146101f55780630ef7ec741461021e57806318160ddd1461025b575b600080fd5b34801561015c57600080fd5b5061017760048036038101906101729190612774565b6105f6565b60405161018491906127bc565b60405180910390f35b34801561019957600080fd5b506101a26106d8565b6040516101af9190612867565b60405180910390f35b3480156101c457600080fd5b506101df60048036038101906101da91906128bf565b61076a565b6040516101ec919061292d565b60405180910390f35b34801561020157600080fd5b5061021c60048036038101906102179190612974565b6107b0565b005b34801561022a57600080fd5b50610245600480360381019061024091906128bf565b6108c7565b6040516102529190612a72565b60405180910390f35b34801561026757600080fd5b50610270610932565b60405161027d9190612aa3565b60405180910390f35b6102a0600480360381019061029b9190612abe565b610938565b005b3480156102ae57600080fd5b506102c960048036038101906102c49190612afe565b610caa565b005b3480156102d757600080fd5b506102e0610d0a565b005b3480156102ee57600080fd5b5061030960048036038101906103049190612afe565b610e6b565b005b34801561031757600080fd5b50610332600480360381019061032d91906128bf565b610e8b565b604051610346989796959493929190612b51565b60405180910390f35b34801561035b57600080fd5b50610376600480360381019061037191906128bf565b6110f3565b604051610383919061292d565b60405180910390f35b34801561039857600080fd5b506103b360048036038101906103ae9190612beb565b611179565b6040516103c09190612aa3565b60405180910390f35b3480156103d557600080fd5b506103de611230565b6040516103eb9190612aa3565b60405180910390f35b34801561040057600080fd5b5061041b600480360381019061041691906128bf565b611236565b6040516104289190612d27565b60405180910390f35b34801561043d57600080fd5b506104466114d4565b604051610453919061292d565b60405180910390f35b34801561046857600080fd5b506104716114fa565b60405161047e9190612867565b60405180910390f35b34801561049357600080fd5b506104ae60048036038101906104a99190612e7e565b61158c565b005b3480156104bc57600080fd5b506104d760048036038101906104d29190612f7b565b611710565b6040516104e491906127bc565b60405180910390f35b3480156104f957600080fd5b50610514600480360381019061050f9190612fe7565b61173f565b005b34801561052257600080fd5b5061053d60048036038101906105389190612abe565b611755565b60405161054a919061292d565b60405180910390f35b34801561055f57600080fd5b5061057a600480360381019061057591906130c8565b611797565b005b34801561058857600080fd5b506105a3600480360381019061059e91906128bf565b6117f9565b6040516105b09190612867565b60405180910390f35b3480156105c557600080fd5b506105e060048036038101906105db919061314b565b611861565b6040516105ed91906127bc565b60405180910390f35b60007f80ac58cd000000000000000000000000000000000000000000000000000000007bffffffffffffffffffffffffffffffffffffffffffffffffffffffff1916827bffffffffffffffffffffffffffffffffffffffffffffffffffffffff191614806106c157507f5b5e139f000000000000000000000000000000000000000000000000000000007bffffffffffffffffffffffffffffffffffffffffffffffffffffffff1916827bffffffffffffffffffffffffffffffffffffffffffffffffffffffff1916145b806106d157506106d0826118f5565b5b9050919050565b6060600080546106e7906131ba565b80601f0160208091040260200160405190810160405280929190818152602001828054610713906131ba565b80156107605780601f1061073557610100808354040283529160200191610760565b820191906000526020600020905b81548152906001019060200180831161074357829003601f168201915b5050505050905090565b60006107758261195f565b6004600083815260200190815260200160002060009054906101000a900473ffffffffffffffffffffffffffffffffffffffff169050919050565b60006107bb826110f3565b90508073ffffffffffffffffffffffffffffffffffffffff168373ffffffffffffffffffffffffffffffffffffffff160361082b576040517f08c379a00000000000000000000000000000000000000000000000000000000081526004016108229061325d565b60405180910390fd5b8073ffffffffffffffffffffffffffffffffffffffff1661084a6119aa565b73ffffffffffffffffffffffffffffffffffffffff1614806108795750610878816108736119aa565b611861565b5b6108b8576040517f08c379a00000000000000000000000000000000000000000000000000000000081526004016108af906132ef565b60405180910390fd5b6108c283836119b2565b505050565b6060600c600083815260200190815260200160002080548060200260200160405190810160405280929190818152602001828054801561092657602002820191906000526020600020905b815481526020019060010190808311610912575b50505050509050919050565b60085481565b6000600960008481526020019081526020016000206003015411610991576040517f08c379a00000000000000000000000000000000000000000000000000000000081526004016109889061335b565b60405180910390fd5b80600960008481526020019081526020016000206003015410156109ea576040517f08c379a00000000000000000000000000000000000000000000000000000000081526004016109e1906133c7565b60405180910390fd5b6009600083815260200190815260200160002060020154341015610a43576040517f08c379a0000000000000000000000000000000000000000000000000000000008152600401610a3a90613433565b60405180910390fd5b600073ffffffffffffffffffffffffffffffffffffffff16600b6000848152602001908152602001600020600083815260200190815260200160002060009054906101000a900473ffffffffffffffffffffffffffffffffffffffff1673ffffffffffffffffffffffffffffffffffffffff1614610af6576040517f08c379a0000000000000000000000000000000000000000000000000000000008152600401610aed9061349f565b60405180910390fd5b6009600083815260200190815260200160002060040154811115610b4f576040517f08c379a0000000000000000000000000000000000000000000000000000000008152600401610b469061350b565b60405180910390fd5b80600960008481526020019081526020016000206003016000828254610b75919061355a565b925050819055506001600a600084815260200190815260200160002060003373ffffffffffffffffffffffffffffffffffffffff1673ffffffffffffffffffffffffffffffffffffffff16815260200190815260200160002060006101000a81548160ff02191690831515021790555033600b6000848152602001908152602001600020600083815260200190815260200160002060006101000a81548173ffffffffffffffffffffffffffffffffffffffff021916908373ffffffffffffffffffffffffffffffffffffffff160217905550600c600083815260200190815260200160002081908060018154018082558091505060019003906000526020600020016000909190919091505560086000815480929190610c959061358e565b9190505550610ca633600854611a6b565b5050565b610cbb610cb56119aa565b82611a89565b610cfa576040517f08c379a0000000000000000000000000000000000000000000000000000000008152600401610cf190613648565b60405180910390fd5b610d05838383611b1e565b505050565b600660009054906101000a900473ffffffffffffffffffffffffffffffffffffffff1673ffffffffffffffffffffffffffffffffffffffff163373ffffffffffffffffffffffffffffffffffffffff1614610d9a576040517f08c379a0000000000000000000000000000000000000000000000000000000008152600401610d91906136da565b60405180910390fd5b6000600660009054906101000a900473ffffffffffffffffffffffffffffffffffffffff1673ffffffffffffffffffffffffffffffffffffffff1647604051610de29061372b565b60006040518083038185875af1925050503d8060008114610e1f576040519150601f19603f3d011682016040523d82523d6000602084013e610e24565b606091505b5050905080610e68576040517f08c379a0000000000000000000000000000000000000000000000000000000008152600401610e5f9061378c565b60405180910390fd5b50565b610e8683838360405180602001604052806000815250611797565b505050565b6009602052806000526040600020600091509050806000015490806001018054610eb4906131ba565b80601f0160208091040260200160405190810160405280929190818152602001828054610ee0906131ba565b8015610f2d5780601f10610f0257610100808354040283529160200191610f2d565b820191906000526020600020905b815481529060010190602001808311610f1057829003601f168201915b505050505090806002015490806003015490806004015490806005018054610f54906131ba565b80601f0160208091040260200160405190810160405280929190818152602001828054610f80906131ba565b8015610fcd5780601f10610fa257610100808354040283529160200191610fcd565b820191906000526020600020905b815481529060010190602001808311610fb057829003601f168201915b505050505090806006018054610fe2906131ba565b80601f016020809104026020016040519081016040528092919081815260200182805461100e906131ba565b801561105b5780601f106110305761010080835404028352916020019161105b565b820191906000526020600020905b81548152906001019060200180831161103e57829003601f168201915b505050505090806007018054611070906131ba565b80601f016020809104026020016040519081016040528092919081815260200182805461109c906131ba565b80156110e95780601f106110be576101008083540402835291602001916110e9565b820191906000526020600020905b8154815290600101906020018083116110cc57829003601f168201915b5050505050905088565b6000806110ff83611e17565b9050600073ffffffffffffffffffffffffffffffffffffffff168173ffffffffffffffffffffffffffffffffffffffff1603611170576040517f08c379a0000000000000000000000000000000000000000000000000000000008152600401611167906137f8565b60405180910390fd5b80915050919050565b60008073ffffffffffffffffffffffffffffffffffffffff168273ffffffffffffffffffffffffffffffffffffffff16036111e9576040517f08c379a00000000000000000000000000000000000000000000000000000000081526004016111e09061388a565b60405180910390fd5b600360008373ffffffffffffffffffffffffffffffffffffffff1673ffffffffffffffffffffffffffffffffffffffff168152602001908152602001600020549050919050565b60075481565b61123e6126c3565b600960008381526020019081526020016000206040518061010001604052908160008201548152602001600182018054611277906131ba565b80601f01602080910402602001604051908101604052809291908181526020018280546112a3906131ba565b80156112f05780601f106112c5576101008083540402835291602001916112f0565b820191906000526020600020905b8154815290600101906020018083116112d357829003601f168201915b50505050508152602001600282015481526020016003820154815260200160048201548152602001600582018054611327906131ba565b80601f0160208091040260200160405190810160405280929190818152602001828054611353906131ba565b80156113a05780601f10611375576101008083540402835291602001916113a0565b820191906000526020600020905b81548152906001019060200180831161138357829003601f168201915b505050505081526020016006820180546113b9906131ba565b80601f01602080910402602001604051908101604052809291908181526020018280546113e5906131ba565b80156114325780601f1061140757610100808354040283529160200191611432565b820191906000526020600020905b81548152906001019060200180831161141557829003601f168201915b5050505050815260200160078201805461144b906131ba565b80601f0160208091040260200160405190810160405280929190818152602001828054611477906131ba565b80156114c45780601f10611499576101008083540402835291602001916114c4565b820191906000526020600020905b8154815290600101906020018083116114a757829003601f168201915b5050505050815250509050919050565b600660009054906101000a900473ffffffffffffffffffffffffffffffffffffffff1681565b606060018054611509906131ba565b80601f0160208091040260200160405190810160405280929190818152602001828054611535906131ba565b80156115825780601f1061155757610100808354040283529160200191611582565b820191906000526020600020905b81548152906001019060200180831161156557829003601f168201915b5050505050905090565b600660009054906101000a900473ffffffffffffffffffffffffffffffffffffffff1673ffffffffffffffffffffffffffffffffffffffff163373ffffffffffffffffffffffffffffffffffffffff161461161c576040517f08c379a0000000000000000000000000000000000000000000000000000000008152600401611613906136da565b60405180910390fd5b6007600081548092919061162f9061358e565b91905055506040518061010001604052806007548152602001878152602001868152602001858152602001858152602001848152602001838152602001828152506009600060075481526020019081526020016000206000820151816000015560208201518160010190816116a49190613a56565b5060408201518160020155606082015181600301556080820151816004015560a08201518160050190816116d89190613a56565b5060c08201518160060190816116ee9190613a56565b5060e08201518160070190816117049190613a56565b50905050505050505050565b600a6020528160005260406000206020528060005260406000206000915091509054906101000a900460ff1681565b61175161174a6119aa565b8383611e54565b5050565b600b6020528160005260406000206020528060005260406000206000915091509054906101000a900473ffffffffffffffffffffffffffffffffffffffff1681565b6117a86117a26119aa565b83611a89565b6117e7576040517f08c379a00000000000000000000000000000000000000000000000000000000081526004016117de90613648565b60405180910390fd5b6117f384848484611fc0565b50505050565b60606118048261195f565b600061180e61201c565b9050600081511161182e5760405180602001604052806000815250611859565b8061183884612033565b604051602001611849929190613b64565b6040516020818303038152906040525b915050919050565b6000600560008473ffffffffffffffffffffffffffffffffffffffff1673ffffffffffffffffffffffffffffffffffffffff16815260200190815260200160002060008373ffffffffffffffffffffffffffffffffffffffff1673ffffffffffffffffffffffffffffffffffffffff16815260200190815260200160002060009054906101000a900460ff16905092915050565b60007f01ffc9a7000000000000000000000000000000000000000000000000000000007bffffffffffffffffffffffffffffffffffffffffffffffffffffffff1916827bffffffffffffffffffffffffffffffffffffffffffffffffffffffff1916149050919050565b61196881612101565b6119a7576040517f08c379a000000000000000000000000000000000000000000000000000000000815260040161199e906137f8565b60405180910390fd5b50565b600033905090565b816004600083815260200190815260200160002060006101000a81548173ffffffffffffffffffffffffffffffffffffffff021916908373ffffffffffffffffffffffffffffffffffffffff160217905550808273ffffffffffffffffffffffffffffffffffffffff16611a25836110f3565b73ffffffffffffffffffffffffffffffffffffffff167f8c5be1e5ebec7d5bd14f71427d1e84f3dd0314c0f7b2291e5b200ac8c7c3b92560405160405180910390a45050565b611a85828260405180602001604052806000815250612142565b5050565b600080611a95836110f3565b90508073ffffffffffffffffffffffffffffffffffffffff168473ffffffffffffffffffffffffffffffffffffffff161480611ad75750611ad68185611861565b5b80611b1557508373ffffffffffffffffffffffffffffffffffffffff16611afd8461076a565b73ffffffffffffffffffffffffffffffffffffffff16145b91505092915050565b8273ffffffffffffffffffffffffffffffffffffffff16611b3e826110f3565b73ffffffffffffffffffffffffffffffffffffffff1614611b94576040517f08c379a0000000000000000000000000000000000000000000000000000000008152600401611b8b90613bfa565b60405180910390fd5b600073ffffffffffffffffffffffffffffffffffffffff168273ffffffffffffffffffffffffffffffffffffffff1603611c03576040517f08c379a0000000000000000000000000000000000000000000000000000000008152600401611bfa90613c8c565b60405180910390fd5b611c10838383600161219d565b8273ffffffffffffffffffffffffffffffffffffffff16611c30826110f3565b73ffffffffffffffffffffffffffffffffffffffff1614611c86576040517f08c379a0000000000000000000000000000000000000000000000000000000008152600401611c7d90613bfa565b60405180910390fd5b6004600082815260200190815260200160002060006101000a81549073ffffffffffffffffffffffffffffffffffffffff02191690556001600360008573ffffffffffffffffffffffffffffffffffffffff1673ffffffffffffffffffffffffffffffffffffffff168152602001908152602001600020600082825403925050819055506001600360008473ffffffffffffffffffffffffffffffffffffffff1673ffffffffffffffffffffffffffffffffffffffff16815260200190815260200160002060008282540192505081905550816002600083815260200190815260200160002060006101000a81548173ffffffffffffffffffffffffffffffffffffffff021916908373ffffffffffffffffffffffffffffffffffffffff160217905550808273ffffffffffffffffffffffffffffffffffffffff168473ffffffffffffffffffffffffffffffffffffffff167fddf252ad1be2c89b69c2b068fc378daa952ba7f163c4a11628f55a4df523b3ef60405160405180910390a4611e1283838360016121a3565b505050565b60006002600083815260200190815260200160002060009054906101000a900473ffffffffffffffffffffffffffffffffffffffff169050919050565b8173ffffffffffffffffffffffffffffffffffffffff168373ffffffffffffffffffffffffffffffffffffffff1603611ec2576040517f08c379a0000000000000000000000000000000000000000000000000000000008152600401611eb990613cf8565b60405180910390fd5b80600560008573ffffffffffffffffffffffffffffffffffffffff1673ffffffffffffffffffffffffffffffffffffffff16815260200190815260200160002060008473ffffffffffffffffffffffffffffffffffffffff1673ffffffffffffffffffffffffffffffffffffffff16815260200190815260200160002060006101000a81548160ff0219169083151502179055508173ffffffffffffffffffffffffffffffffffffffff168373ffffffffffffffffffffffffffffffffffffffff167f17307eab39ab6107e8899845ad3d59bd9653f200f220920489ca2b5937696c3183604051611fb391906127bc565b60405180910390a3505050565b611fcb848484611b1e565b611fd7848484846121a9565b612016576040517f08c379a000000000000000000000000000000000000000000000000000000000815260040161200d90613d8a565b60405180910390fd5b50505050565b606060405180602001604052806000815250905090565b60606000600161204284612330565b01905060008167ffffffffffffffff81111561206157612060612d53565b5b6040519080825280601f01601f1916602001820160405280156120935781602001600182028036833780820191505090505b509050600082602001820190505b6001156120f6578080600190039150507f3031323334353637383961626364656600000000000000000000000000000000600a86061a8153600a85816120ea576120e9613daa565b5b049450600085036120a1575b819350505050919050565b60008073ffffffffffffffffffffffffffffffffffffffff1661212383611e17565b73ffffffffffffffffffffffffffffffffffffffff1614159050919050565b61214c8383612483565b61215960008484846121a9565b612198576040517f08c379a000000000000000000000000000000000000000000000000000000000815260040161218f90613d8a565b60405180910390fd5b505050565b50505050565b50505050565b60006121ca8473ffffffffffffffffffffffffffffffffffffffff166126a0565b15612323578373ffffffffffffffffffffffffffffffffffffffff1663150b7a026121f36119aa565b8786866040518563ffffffff1660e01b81526004016122159493929190613e2e565b6020604051808303816000875af192505050801561225157506040513d601f19601f8201168201806040525081019061224e9190613e8f565b60015b6122d3573d8060008114612281576040519150601f19603f3d011682016040523d82523d6000602084013e612286565b606091505b5060008151036122cb576040517f08c379a00000000000000000000000000000000000000000000000000000000081526004016122c290613d8a565b60405180910390fd5b805181602001fd5b63150b7a0260e01b7bffffffffffffffffffffffffffffffffffffffffffffffffffffffff1916817bffffffffffffffffffffffffffffffffffffffffffffffffffffffff191614915050612328565b600190505b949350505050565b600080600090507a184f03e93ff9f4daa797ed6e38ed64bf6a1f010000000000000000831061238e577a184f03e93ff9f4daa797ed6e38ed64bf6a1f010000000000000000838161238457612383613daa565b5b0492506040810190505b6d04ee2d6d415b85acef810000000083106123cb576d04ee2d6d415b85acef810000000083816123c1576123c0613daa565b5b0492506020810190505b662386f26fc1000083106123fa57662386f26fc1000083816123f0576123ef613daa565b5b0492506010810190505b6305f5e1008310612423576305f5e100838161241957612418613daa565b5b0492506008810190505b612710831061244857612710838161243e5761243d613daa565b5b0492506004810190505b6064831061246b576064838161246157612460613daa565b5b0492506002810190505b600a831061247a576001810190505b80915050919050565b600073ffffffffffffffffffffffffffffffffffffffff168273ffffffffffffffffffffffffffffffffffffffff16036124f2576040517f08c379a00000000000000000000000000000000000000000000000000000000081526004016124e990613f08565b60405180910390fd5b6124fb81612101565b1561253b576040517f08c379a000000000000000000000000000000000000000000000000000000000815260040161253290613f74565b60405180910390fd5b61254960008383600161219d565b61255281612101565b15612592576040517f08c379a000000000000000000000000000000000000000000000000000000000815260040161258990613f74565b60405180910390fd5b6001600360008473ffffffffffffffffffffffffffffffffffffffff1673ffffffffffffffffffffffffffffffffffffffff16815260200190815260200160002060008282540192505081905550816002600083815260200190815260200160002060006101000a81548173ffffffffffffffffffffffffffffffffffffffff021916908373ffffffffffffffffffffffffffffffffffffffff160217905550808273ffffffffffffffffffffffffffffffffffffffff16600073ffffffffffffffffffffffffffffffffffffffff167fddf252ad1be2c89b69c2b068fc378daa952ba7f163c4a11628f55a4df523b3ef60405160405180910390a461269c6000838360016121a3565b5050565b6000808273ffffffffffffffffffffffffffffffffffffffff163b119050919050565b60405180610100016040528060008152602001606081526020016000815260200160008152602001600081526020016060815260200160608152602001606081525090565b6000604051905090565b600080fd5b600080fd5b60007fffffffff0000000000000000000000000000000000000000000000000000000082169050919050565b6127518161271c565b811461275c57600080fd5b50565b60008135905061276e81612748565b92915050565b60006020828403121561278a57612789612712565b5b60006127988482850161275f565b91505092915050565b60008115159050919050565b6127b6816127a1565b82525050565b60006020820190506127d160008301846127ad565b92915050565b600081519050919050565b600082825260208201905092915050565b60005b838110156128115780820151818401526020810190506127f6565b60008484015250505050565b6000601f19601f8301169050919050565b6000612839826127d7565b61284381856127e2565b93506128538185602086016127f3565b61285c8161281d565b840191505092915050565b60006020820190508181036000830152612881818461282e565b905092915050565b6000819050919050565b61289c81612889565b81146128a757600080fd5b50565b6000813590506128b981612893565b92915050565b6000602082840312156128d5576128d4612712565b5b60006128e3848285016128aa565b91505092915050565b600073ffffffffffffffffffffffffffffffffffffffff82169050919050565b6000612917826128ec565b9050919050565b6129278161290c565b82525050565b6000602082019050612942600083018461291e565b92915050565b6129518161290c565b811461295c57600080fd5b50565b60008135905061296e81612948565b92915050565b6000806040838503121561298b5761298a612712565b5b60006129998582860161295f565b92505060206129aa858286016128aa565b9150509250929050565b600081519050919050565b600082825260208201905092915050565b6000819050602082019050919050565b6129e981612889565b82525050565b60006129fb83836129e0565b60208301905092915050565b6000602082019050919050565b6000612a1f826129b4565b612a2981856129bf565b9350612a34836129d0565b8060005b83811015612a65578151612a4c88826129ef565b9750612a5783612a07565b925050600181019050612a38565b5085935050505092915050565b60006020820190508181036000830152612a8c8184612a14565b905092915050565b612a9d81612889565b82525050565b6000602082019050612ab86000830184612a94565b92915050565b60008060408385031215612ad557612ad4612712565b5b6000612ae3858286016128aa565b9250506020612af4858286016128aa565b9150509250929050565b600080600060608486031215612b1757612b16612712565b5b6000612b258682870161295f565b9350506020612b368682870161295f565b9250506040612b47868287016128aa565b9150509250925092565b600061010082019050612b67600083018b612a94565b8181036020830152612b79818a61282e565b9050612b886040830189612a94565b612b956060830188612a94565b612ba26080830187612a94565b81810360a0830152612bb4818661282e565b905081810360c0830152612bc8818561282e565b905081810360e0830152612bdc818461282e565b90509998505050505050505050565b600060208284031215612c0157612c00612712565b5b6000612c0f8482850161295f565b91505092915050565b600082825260208201905092915050565b6000612c34826127d7565b612c3e8185612c18565b9350612c4e8185602086016127f3565b612c578161281d565b840191505092915050565b600061010083016000830151612c7b60008601826129e0565b5060208301518482036020860152612c938282612c29565b9150506040830151612ca860408601826129e0565b506060830151612cbb60608601826129e0565b506080830151612cce60808601826129e0565b5060a083015184820360a0860152612ce68282612c29565b91505060c083015184820360c0860152612d008282612c29565b91505060e083015184820360e0860152612d1a8282612c29565b9150508091505092915050565b60006020820190508181036000830152612d418184612c62565b905092915050565b600080fd5b600080fd5b7f4e487b7100000000000000000000000000000000000000000000000000000000600052604160045260246000fd5b612d8b8261281d565b810181811067ffffffffffffffff82111715612daa57612da9612d53565b5b80604052505050565b6000612dbd612708565b9050612dc98282612d82565b919050565b600067ffffffffffffffff821115612de957612de8612d53565b5b612df28261281d565b9050602081019050919050565b82818337600083830152505050565b6000612e21612e1c84612dce565b612db3565b905082815260208101848484011115612e3d57612e3c612d4e565b5b612e48848285612dff565b509392505050565b600082601f830112612e6557612e64612d49565b5b8135612e75848260208601612e0e565b91505092915050565b60008060008060008060c08789031215612e9b57612e9a612712565b5b600087013567ffffffffffffffff811115612eb957612eb8612717565b5b612ec589828a01612e50565b9650506020612ed689828a016128aa565b9550506040612ee789828a016128aa565b945050606087013567ffffffffffffffff811115612f0857612f07612717565b5b612f1489828a01612e50565b935050608087013567ffffffffffffffff811115612f3557612f34612717565b5b612f4189828a01612e50565b92505060a087013567ffffffffffffffff811115612f6257612f61612717565b5b612f6e89828a01612e50565b9150509295509295509295565b60008060408385031215612f9257612f91612712565b5b6000612fa0858286016128aa565b9250506020612fb18582860161295f565b9150509250929050565b612fc4816127a1565b8114612fcf57600080fd5b50565b600081359050612fe181612fbb565b92915050565b60008060408385031215612ffe57612ffd612712565b5b600061300c8582860161295f565b925050602061301d85828601612fd2565b9150509250929050565b600067ffffffffffffffff82111561304257613041612d53565b5b61304b8261281d565b9050602081019050919050565b600061306b61306684613027565b612db3565b90508281526020810184848401111561308757613086612d4e565b5b613092848285612dff565b509392505050565b600082601f8301126130af576130ae612d49565b5b81356130bf848260208601613058565b91505092915050565b600080600080608085870312156130e2576130e1612712565b5b60006130f08782880161295f565b94505060206131018782880161295f565b9350506040613112878288016128aa565b925050606085013567ffffffffffffffff81111561313357613132612717565b5b61313f8782880161309a565b91505092959194509250565b6000806040838503121561316257613161612712565b5b60006131708582860161295f565b92505060206131818582860161295f565b9150509250929050565b7f4e487b7100000000000000000000000000000000000000000000000000000000600052602260045260246000fd5b600060028204905060018216806131d257607f821691505b6020821081036131e5576131e461318b565b5b50919050565b7f4552433732313a20617070726f76616c20746f2063757272656e74206f776e6560008201527f7200000000000000000000000000000000000000000000000000000000000000602082015250565b60006132476021836127e2565b9150613252826131eb565b604082019050919050565b600060208201905081810360008301526132768161323a565b9050919050565b7f4552433732313a20617070726f76652063616c6c6572206973206e6f7420746f60008201527f6b656e206f776e6572206f7220617070726f76656420666f7220616c6c000000602082015250565b60006132d9603d836127e2565b91506132e48261327d565b604082019050919050565b60006020820190508181036000830152613308816132cc565b9050919050565b7f4e6f207469636b65747320617661696c61626c65000000000000000000000000600082015250565b60006133456014836127e2565b91506133508261330f565b602082019050919050565b6000602082019050818103600083015261337481613338565b9050919050565b7f4e6f7420656e6f756768207469636b65747320617661696c61626c6500000000600082015250565b60006133b1601c836127e2565b91506133bc8261337b565b602082019050919050565b600060208201905081810360008301526133e0816133a4565b9050919050565b7f496e73756666696369656e742066756e64730000000000000000000000000000600082015250565b600061341d6012836127e2565b9150613428826133e7565b602082019050919050565b6000602082019050818103600083015261344c81613410565b9050919050565b7f5365617420616c72656164792074616b656e0000000000000000000000000000600082015250565b60006134896012836127e2565b915061349482613453565b602082019050919050565b600060208201905081810360008301526134b88161347c565b9050919050565b7f5365617420646f6573206e6f7420657869737400000000000000000000000000600082015250565b60006134f56013836127e2565b9150613500826134bf565b602082019050919050565b60006020820190508181036000830152613524816134e8565b9050919050565b7f4e487b7100000000000000000000000000000000000000000000000000000000600052601160045260246000fd5b600061356582612889565b915061357083612889565b92508282039050818111156135885761358761352b565b5b92915050565b600061359982612889565b91507fffffffffffffffffffffffffffffffffffffffffffffffffffffffffffffffff82036135cb576135ca61352b565b5b600182019050919050565b7f4552433732313a2063616c6c6572206973206e6f7420746f6b656e206f776e6560008201527f72206f7220617070726f76656400000000000000000000000000000000000000602082015250565b6000613632602d836127e2565b915061363d826135d6565b604082019050919050565b6000602082019050818103600083015261366181613625565b9050919050565b7f4f6e6c79206f776e65722063616e2063616c6c20746869732066756e6374696f60008201527f6e00000000000000000000000000000000000000000000000000000000000000602082015250565b60006136c46021836127e2565b91506136cf82613668565b604082019050919050565b600060208201905081810360008301526136f3816136b7565b9050919050565b600081905092915050565b50565b60006137156000836136fa565b915061372082613705565b600082019050919050565b600061373682613708565b9150819050919050565b7f5472616e73666572206661696c65642e00000000000000000000000000000000600082015250565b60006137766010836127e2565b915061378182613740565b602082019050919050565b600060208201905081810360008301526137a581613769565b9050919050565b7f4552433732313a20696e76616c696420746f6b656e2049440000000000000000600082015250565b60006137e26018836127e2565b91506137ed826137ac565b602082019050919050565b60006020820190508181036000830152613811816137d5565b9050919050565b7f4552433732313a2061646472657373207a65726f206973206e6f74206120766160008201527f6c6964206f776e65720000000000000000000000000000000000000000000000602082015250565b60006138746029836127e2565b915061387f82613818565b604082019050919050565b600060208201905081810360008301526138a381613867565b9050919050565b60008190508160005260206000209050919050565b60006020601f8301049050919050565b600082821b905092915050565b60006008830261390c7fffffffffffffffffffffffffffffffffffffffffffffffffffffffffffffffff826138cf565b61391686836138cf565b95508019841693508086168417925050509392505050565b6000819050919050565b600061395361394e61394984612889565b61392e565b612889565b9050919050565b6000819050919050565b61396d83613938565b6139816139798261395a565b8484546138dc565b825550505050565b600090565b613996613989565b6139a1818484613964565b505050565b5b818110156139c5576139ba60008261398e565b6001810190506139a7565b5050565b601f821115613a0a576139db816138aa565b6139e4846138bf565b810160208510156139f3578190505b613a076139ff856138bf565b8301826139a6565b50505b505050565b600082821c905092915050565b6000613a2d60001984600802613a0f565b1980831691505092915050565b6000613a468383613a1c565b9150826002028217905092915050565b613a5f826127d7565b67ffffffffffffffff811115613a7857613a77612d53565b5b613a8282546131ba565b613a8d8282856139c9565b600060209050601f831160018114613ac05760008415613aae578287015190505b613ab88582613a3a565b865550613b20565b601f198416613ace866138aa565b60005b82811015613af657848901518255600182019150602085019450602081019050613ad1565b86831015613b135784890151613b0f601f891682613a1c565b8355505b6001600288020188555050505b505050505050565b600081905092915050565b6000613b3e826127d7565b613b488185613b28565b9350613b588185602086016127f3565b80840191505092915050565b6000613b708285613b33565b9150613b7c8284613b33565b91508190509392505050565b7f4552433732313a207472616e736665722066726f6d20696e636f72726563742060008201527f6f776e6572000000000000000000000000000000000000000000000000000000602082015250565b6000613be46025836127e2565b9150613bef82613b88565b604082019050919050565b60006020820190508181036000830152613c1381613bd7565b9050919050565b7f4552433732313a207472616e7366657220746f20746865207a65726f2061646460008201527f7265737300000000000000000000000000000000000000000000000000000000602082015250565b6000613c766024836127e2565b9150613c8182613c1a565b604082019050919050565b60006020820190508181036000830152613ca581613c69565b9050919050565b7f4552433732313a20617070726f766520746f2063616c6c657200000000000000600082015250565b6000613ce26019836127e2565b9150613ced82613cac565b602082019050919050565b60006020820190508181036000830152613d1181613cd5565b9050919050565b7f4552433732313a207472616e7366657220746f206e6f6e20455243373231526560008201527f63656976657220696d706c656d656e7465720000000000000000000000000000602082015250565b6000613d746032836127e2565b9150613d7f82613d18565b604082019050919050565b60006020820190508181036000830152613da381613d67565b9050919050565b7f4e487b7100000000000000000000000000000000000000000000000000000000600052601260045260246000fd5b600081519050919050565b600082825260208201905092915050565b6000613e0082613dd9565b613e0a8185613de4565b9350613e1a8185602086016127f3565b613e238161281d565b840191505092915050565b6000608082019050613e43600083018761291e565b613e50602083018661291e565b613e5d6040830185612a94565b8181036060830152613e6f8184613df5565b905095945050505050565b600081519050613e8981612748565b92915050565b600060208284031215613ea557613ea4612712565b5b6000613eb384828501613e7a565b91505092915050565b7f4552433732313a206d696e7420746f20746865207a65726f2061646472657373600082015250565b6000613ef26020836127e2565b9150613efd82613ebc565b602082019050919050565b60006020820190508181036000830152613f2181613ee5565b9050919050565b7f4552433732313a20746f6b656e20616c7265616479206d696e74656400000000600082015250565b6000613f5e601c836127e2565b9150613f6982613f28565b602082019050919050565b60006020820190508181036000830152613f8d81613f51565b905091905056fea2646970667358221220c8e3ea2c2bb449f5d61b7bf96dde3cab37ee3f3c6220335e5be8ed8b44a31c0064736f6c63430008110033",
  "linkReferences": {},
  "deployedLinkReferences": {}
}